:100000000C9463000C948B000C948B000C948B006C
:100010000C948B000C948B000C948B000C948B0034
:100020000C948B000C948B000C948B000C948B0024
:100030000C948B000C948B000C948B000C948B0014
:100040000C94FF020C948B000C949B040C94E90418
:100050000C948B000C948B000C948B000C948B00F4
:100060000C948B000C948B000000000024002700EF
:100070002A0000000000250028002B0000000000DE
:1000800023002600290004040404040404040202DA
:100090000202020203030303030301020408102007
:1000A0004080010204081020010204081020000012
:1000B0000007000201000003040600000000000029
:1000C00000008D00550611241FBECFEFD8E0DEBF23
:1000D000CDBF11E0A0E0B1E0E2EDF0E102C005909B
:1000E0000D92AA32B107D9F711E0AAE2B1E001C03E
:1000F0001D92A43FB107E1F710E0C6ECD0E004C0C8
:100100002297FE010E946308C23CD107C9F70E94F2
:10011000AB060C9467080C940000CF92EF920F93FB
:100120008AE291E06CE04BE025E004E053E0E52E4C
:1001300032E0C32E0E94C6020F91EF90CF90089537
:10014000CF92DF92EF92FF920F931F93809106015F
:100150000E94E5039093400180933F0162E070E0CC
:100160000E941808D62EC72E0AE211E0C80160E0EE
:1001700040E00E94D90160913F0170914001C801A7
:100180004AE050E00E94C407C80160E041E00E94DC
:10019000D90160E0E62E61E0F62EC801B7010E94A9
:1001A000F607C80165E041E00E94D901C8016D2D44
:1001B0007C2D4AE050E00E94C40702ED11E0C80126
:1001C000B7010E94F607C8016D2D7C2D4AE050E072
:1001D0000E94D70768EE73E080E090E00E9447033A
:1001E0001F910F91FF90EF90DF90CF9008950F93A4
:1001F0001F9382ED91E040E855E260E070E00E94DC
:1002000024050AE211E0C80160E142E020E00E941A
:100210001002C8010E9408021F910F9108950F93C8
:100220001F938C01FC01868160E00E94460481E0FE
:1002300090E00E94A003F801868161E00E944604DC
:1002400081E090E00E94A003F801868160E00E94B6
:10025000460484E690E00E94A0031F910F91089548
:10026000CF92DF92EF92FF920F931F93CF93DF9382
:10027000D82EC92E282F392FC9018C01C0E0D0E01B
:10028000E62EFF24F801878161E00E940704B70190
:100290000C2E02C0759567950A94E2F76170F8011B
:1002A00087810E94460421960F5F1F4FC830D105F9
:1002B00049F78D2D9C2D0E940F01DF91CF911F9149
:1002C0000F91FF90EF90DF90CF900895CF92DF9243
:1002D000EF92FF920F931F93CF93DF93D82EC92EE7
:1002E000282F392FC9018C01C0E0D0E0E62EFF2471
:1002F000F801878161E00E940704B7010C2E02C05B
:10030000759567950A94E2F76170F80187810E94FC
:10031000460421960F5F1F4FC430D10549F78D2D3C
:100320009C2D0E940F01DF91CF911F910F91FF90A3
:10033000EF90DF90CF9008951F93CF93DF93EC0160
:10034000162F8C81642F0E9446048D818F3F19F0F7
:1003500060E00E9446048F8584FF05C0CE01612FB6
:100360000E9430010EC0612F70E084E075956795A2
:100370008A95E1F7CE010E946601CE01612F0E94AD
:100380006601DF91CF911F91089541E00E949C0189
:1003900081E090E0089540E00E949C010895FC01F6
:1003A0006089862F8460808B6C60CF010E94CB01B6
:1003B0000895DF93CF93CDB7DEB728970FB6F894A3
:1003C000DEBF0FBECDBF9C01FE013196A1E1B1E0C1
:1003D00088E00D9001928150E1F7F9018389481777
:1003E00010F0482F4150E42FF0E0EE0FFF1FEC0F0C
:1003F000FD1F8181680F6068C9010E94CB012896AA
:100400000FB6F894DEBF0FBECDBFCF91DF91089538
:1004100061E00E94CB0180ED97E00E94A003089567
:10042000CF93DF93EC01423018F08F8588608F877F
:100430004B8B1C8A222329F0413019F48F8584606C
:100440008F8780E593EC0E94A0038C8160E00E947E
:1004500046048E8160E00E9446048D818F3F19F032
:1004600060E00E9446046F8564FD1DC0CE0163E01C
:100470000E94660184E991E10E94A003CE0163E03D
:100480000E94660184E991E10E94A003CE0163E02D
:100490000E94660186E990E00E94A003CE0162E01E
:1004A0000E94660116C06062CE010E94CB0184E901
:1004B00091E10E94A0036F856062CE010E94CB0192
:1004C00086E990E00E94A0036F856062CE010E94E1
:1004D000CB016F856062CE010E94CB0184E0888BE6
:1004E000CE010E94CF01CE010E94080282E0898BDA
:1004F000CE0166E00E94CB01DF91CF9108956F920B
:100500007F928F92AF92CF92EF920F931F93DF93D0
:10051000CF93CDB7DEB73C01162F842FF301448370
:1005200025830683E782C086A18682869D85938780
:100530009E8594879F8595879889968761E00E941C
:100540000704F30185818F3F19F061E00E940704E1
:10055000F301868161E00E940704112319F0F30181
:10056000178603C080E1F3018787C30160E141E0A2
:1005700020E00E941002CF91DF911F910F91EF9028
:10058000CF90AF908F907F906F9008958F92AF92A1
:10059000CF92EF920F931F93CF93DF93DC01362F0F
:1005A000542F722F102FAE2C8C2C13961C921E924F
:1005B00012978DE091E011969C938E9300D000D01D
:1005C000EDB7FEB73196CDB7DEB719821182128230
:1005D0001382CD0161E0432F2FEF052FE72EC12EAF
:1005E0000E947F020F900F900F900F90DF91CF919C
:1005F0001F910F91EF90CF90AF908F9008951F9221
:100600000F920FB60F9211242F933F938F939F93C6
:10061000AF93BF938091450190914601A09147010E
:10062000B0914801309149010196A11DB11D232FC0
:100630002D5F2D3720F02D570196A11DB11D209360
:1006400049018093450190934601A0934701B093DF
:1006500048018091410190914201A0914301B091E4
:1006600044010196A11DB11D809341019093420167
:10067000A0934301B0934401BF91AF919F918F919B
:100680003F912F910F900FBE0F901F9018959B01D7
:10069000AC017FB7F8948091410190914201A09103
:1006A0004301B091440166B5A89B05C06F3F19F0A6
:1006B0000196A11DB11D7FBFBA2FA92F982F8827A2
:1006C000860F911DA11DB11D62E0880F991FAA1F01
:1006D000BB1F6A95D1F7BC012DC0FFB7F89480917C
:1006E000410190914201A0914301B0914401E6B5CE
:1006F000A89B05C0EF3F19F00196A11DB11DFFBFDA
:10070000BA2FA92F982F88278E0F911DA11DB11DDB
:10071000E2E0880F991FAA1FBB1FEA95D1F7861B3D
:10072000970B885E9340C8F22150304040405040C3
:1007300068517C4F211531054105510571F6089529
:10074000019739F0880F991F880F991F0297019719
:10075000F1F70895789484B5826084BD84B5816092
:1007600084BD85B5826085BD85B5816085BDEEE6B9
:10077000F0E0808181608083E1E8F0E01082808198
:1007800082608083808181608083E0E8F0E0808106
:1007900081608083E1EBF0E0808184608083E0EB26
:1007A000F0E0808181608083EAE7F0E0808184600E
:1007B000808380818260808380818160808380816A
:1007C000806880831092C1000895982F8E3008F0C1
:1007D0009E509770809108018295880F880F807CC9
:1007E000892B80937C0080917A00806480937A00CA
:1007F00080917A0086FDFCCF2091780040917900AD
:10080000942F80E030E0282B392BC9010895CF9335
:10081000DF93482F50E0CA0186569F4FFC01349168
:100820004A575F4FFA018491882369F190E0880F5D
:10083000991FFC01E859FF4FA591B491FC01EE58B6
:10084000FF4FC591D491662351F42FB7F8948C9142
:10085000932F909589238C93888189230BC06230D4
:1008600061F42FB7F8948C91932F909589238C93F2
:100870008881832B88832FBF06C09FB7F8948C9103
:10088000832B8C939FBFDF91CF910895482F50E029
:10089000CA0182559F4FFC012491CA0186569F4F81
:1008A000FC0194914A575F4FFA013491332309F4C4
:1008B00040C0222351F1233071F0243028F421303C
:1008C000A1F0223011F514C02630B1F02730C1F06C
:1008D0002430D9F404C0809180008F7703C08091C8
:1008E00080008F7D8093800010C084B58F7702C018
:1008F00084B58F7D84BD09C08091B0008F7703C01F
:100900008091B0008F7D8093B000E32FF0E0EE0F78
:10091000FF1FEE58FF4FA591B4912FB7F8946623AF
:1009200021F48C919095892302C08C91892B8C9312
:100930002FBF089508951F920F920FB60F921124A2
:100940002F933F934F938F939F93EF93FF938091B8
:10095000C00082FD1DC04091C60020918A013091E7
:100960008B012F5F3F4F2F73307080918C019091DE
:100970008D012817390771F0E0918A01F0918B0100
:10098000E65BFE4F408330938B0120938A0102C0C7
:100990008091C600FF91EF919F918F914F913F9170
:1009A0002F910F900FBE0F901F901895E091DE01D0
:1009B000F091DF01E05CFF4F8191919120813181C5
:1009C000821B930B8F739070892B11F00E949A04F5
:1009D00008951F920F920FB60F9211242F933F93F9
:1009E0008F939F93EF93FF932091CE013091CF018E
:1009F0008091D0019091D1012817390731F480916D
:100A0000C1008F7D8093C10014C0E091D001F091AE
:100A1000D101E257FE4F20818091D0019091D10108
:100A200001968F7390709093D1018093D0012093A1
:100A3000C600FF91EF919F918F913F912F910F9061
:100A40000FBE0F901F901895AF92BF92DF92EF925A
:100A5000FF920F931F93CF93DF93EC017A018B01E9
:100A6000DD24403081EE580780E0680780E0780799
:100A700011F0DD24D39491E0A92EB12CEC89FD89ED
:100A8000DD2069F0C50108A002C0880F991F0A94F3
:100A9000E2F7808360E079E08DE390E005C01082AA
:100AA00060E874E88EE190E0A80197010E942B08AD
:100AB00021503040404050405695479537952795F6
:100AC00080E12030380720F0DD2011F0DD24D6CF82
:100AD000E889F9893083EA89FB89208319A2EE89A4
:100AE000FF89408121E030E0C9010C8C02C0880FF1
:100AF000991F0A94E2F7482B4083EE89FF894081D1
:100B0000C9010D8C02C0880F991F0A94E2F7482B87
:100B10004083EE89FF894081C9010E8C02C0880F95
:100B2000991F0A94E2F7482B4083EE89FF89808160
:100B30000F8C02C0220F331F0A94E2F7209528235E
:100B40002083DF91CF911F910F91FF90EF90DF9065
:100B5000BF90AF900895DC011C96ED91FC911D971C
:100B6000E05CFF4F2191319180819181281B390BED
:100B70002F733070C9010895DC011C96ED91FC9132
:100B80001D97E05CFF4F20813181E054F040DF0190
:100B9000AE5BBF4F8D919C9111972817390719F4BF
:100BA0002FEF3FEF07C08D919C91E80FF91F8081D7
:100BB000282F30E0C9010895DC011C96ED91FC91CD
:100BC0001D97E05CFF4F20813181E054F040DF0150
:100BD000AE5BBF4F8D919C9111972817390719F47F
:100BE0002FEF3FEF10C08D919C911197E80FF91FE7
:100BF00020818D919C91119701968F739070119621
:100C00009C938E9330E0C9010895DC0191968C91FC
:100C10009197882339F05496ED91FC9155978081F6
:100C200086FFF9CF91961C920895CF93DF93EC0144
:100C3000EE85FF85E05CFF4F20813181E054F0407C
:100C40002F5F3F4F2F733070DF01AE5BBF4F8D9131
:100C50009C91119728173907D1F3E05CFF4F8081F1
:100C60009181E054F040E80FF91F6083EE85FF8525
:100C7000E05CFF4F31832083EE89FF89208181E092
:100C800090E00F8C02C0880F991F0A94E2F7282B7E
:100C9000208381E089A3EC89FD8980818064808341
:100CA00081E090E0DF91CF9108951092D5011092EC
:100CB000D40188EE93E0A0E0B0E08093D601909359
:100CC000D701A093D801B093D9018DE191E0909321
:100CD000D3018093D2018AE491E09093DF01809365
:100CE000DE018EE891E09093E1018093E00185ECD4
:100CF00090E09093E3018093E20184EC90E0909384
:100D0000E5018093E40180EC90E09093E70180930B
:100D1000E60181EC90E09093E9018093E80182EC98
:100D200090E09093EB018093EA0186EC90E0909341
:100D3000ED018093EC0184E08093EE0183E08093E9
:100D4000EF0187E08093F00185E08093F10181E07D
:100D50008093F2010895CF93DF930E94AA030E942B
:100D6000F700C6EDD4E00E94A0002097E1F30E94B6
:100D7000D604F9CFCF92DF92EF92FF920F931F9399
:100D8000CF93DF937C016B018A01C0E0D0E00FC0FC
:100D9000D6016D916D01D701ED91FC910190F0812B
:100DA000E02DC7010995C80FD91F0150104001154A
:100DB000110571F7CE01DF91CF911F910F91FF9037
:100DC000EF90DF90CF900895EF92FF920F931F93D3
:100DD0008C01DC01ED91FC910190F081E02D6DE042
:100DE00009957C01D801ED91FC910190F081E02DF5
:100DF000C8016AE009959C012E0D3F1DC9011F9194
:100E00000F91FF90EF900895CF93DF93EC01611560
:100E1000710519F420E030E00FC0DB010D900020D7
:100E2000E9F71197A61BB70BE881F9810280F381DE
:100E3000E02DAD0109959C01C901DF91CF91089585
:100E40004F925F927F928F929F92AF92BF92CF927A
:100E5000DF92EF92FF920F931F93DF93CF93CDB763
:100E6000DEB7A1970FB6F894DEBF0FBECDBF2C0141
:100E7000742ECB01223008F42AE019A231E2C32EED
:100E8000D12CCC0EDD1E822E9924AA24BB24672DE2
:100E9000752FA50194010E942B0879018A01C801D0
:100EA000B701A50194010E94F907472D461B08943C
:100EB000C108D1084A3014F4405D01C0495CF60114
:100EC0004083E114F1040105110521F07E2C5F2D12
:100ED000C801DDCFC201B6010E940407A1960FB67A
:100EE000F894DEBF0FBECDBFCF91DF911F910F9160
:100EF000FF90EF90DF90CF90BF90AF909F908F903A
:100F00007F905F904F900895CF92DF92EF92FF9283
:100F10000F931F93CF93DF93EC016A017B0121159F
:100F2000310541F4E881F9810190F081E02D642FD1
:100F300009951FC02A303105D1F477FF17C0E88129
:100F4000F9810190F081E02D6DE209958C01442733
:100F50005527BA014C195D096E097F09CE012AE0B7
:100F60000E9420079801280F391F04C02AE00E9420
:100F700020079C01C901DF91CF911F910F91FF9034
:100F8000EF90DF90CF900895EF92FF920F931F9311
:100F90007B019A010027F7FC0095102FB801A701EB
:100FA0000E9484071F910F91FF90EF900895CF92B8
:100FB000DF92EF92FF920F931F936C017B019A01D6
:100FC0000027F7FC0095102FB801A7010E948407A5
:100FD0008C01C6010E94E406080F191FC8011F9169
:100FE0000F91FF90EF90DF90CF9008950E9404073B
:100FF0000895629FD001739FF001829FE00DF11D63
:10100000649FE00DF11D929FF00D839FF00D749F82
:10101000F00D659FF00D9927729FB00DE11DF91F2E
:10102000639FB00DE11DF91FBD01CF01112408958B
:1010300097FB092E07260AD077FD04D02ED006D0C4
:1010400000201AF4709561957F4F0895F6F79095FA
:1010500081959F4F0895A1E21A2EAA1BBB1BFD018B
:101060000DC0AA1FBB1FEE1FFF1FA217B307E40787
:10107000F50720F0A21BB30BE40BF50B661F771FDF
:10108000881F991F1A9469F76095709580959095BF
:101090009B01AC01BD01CF010895AA1BBB1B51E10F
:1010A00007C0AA1FBB1FA617B70710F0A61BB70BD8
:1010B000881F991F5A95A9F780959095BC01CD017D
:1010C0000895EE0FFF1F0590F491E02D0994F89418
:0210D000FFCF50
:1010D20054454D503A000E000100000000C501BA0F
:1010E200060000400014005400000000001506BA7B
:0A10F20006AB05DC05BC0505060091
:00000001FF
